:1007A60028EE32A2E4A121EA20A060253926317183
:0107B600FF43
:0D07C5000832C0F9A4B0999282F801270310
:0C07D300C2AF53E71843E70143E7802260
:0907F50053E77FE4F5E6D2AF22E0
:0B07DF001207D375E64675E6B900224C
:10072300AD07AC06C2AF8CE3EDF5E453E5F843E562
:0C073300011207DF1207F5D2AFAFE2227F
:10079100EE54FEFEF5E3E4F5E453E5F843E5031218
:0507A10007DF0207F56F
:10073F00AB07AA06C2AF8AE3EBF5E453E5F843E54E
:0C074F00028DE21207DF1207F5D2AF2284
:10070300E4FDFCC3ED9FEC9E5015E4FBFA0BBB002C
:0F071300010AEB64784A70F50DBD00010C80E41B
:0107220022B4
:10051A00E47B0AFAF9F8AF2EAE2DAD2CAC2B1206FD
:10052A001B74A62BF58274073AF583E493F532E43B
:10053A007B0AFAF9F8AF2EAE2DAD2CAC2B12061BA6
:10054A00E47B0AFAF9F812061B74A62BF5827407E3
:10055A003AF583E493F533E47B64FAF9F8AF2EAE07
:10056A002DAD2CAC2B12061BE47B0AFAF9F8120605
:10057A001B74A62BF58274073AF583E49354DFF5CE
:02058A00342219
:10075B007F007E20120791AD267E2012073FE525F4
:0C076B00FD0F12073FAD287F5802073F2A
:1006E0007F017E201207237525008F26E5267526BB
:1006F00000F5257F00120723EF42267F58120723BB
:030700008F28221D
:100003001206E0E5286401600C752500752632753B
:06001300280112075B2228
:1005D700752F1443A007E5A05407640760327F0115
:1005E7007E00120703E5A0540764076026E521B4DF
:1005F7000121E4F521E5A0540724FD600F24FE60E6
:100607000714700F752F0322752F0222752F0122F1
:0306170075210149
:01061A0022BD
:10032A00E52FB401170529E529C394024006E4F52F
:10033A0029752703E529B40103752704E529640112
:10034A0060030203EAE52FB402170526E5267002C8
:10035A000525D39490E52594014006752501752657
:10036A0090E52FB40319E526152670021525D3E565
:10037A00269401E52594005006752500752601AEE0
:10038A0025AF267C007D0A1201E374A62DF582743E
:10039A00073CF583E493F532AE25AF267C007D0A4F
:1003AA001201E37C007D0A1201E374A62DF5827422
:1003BA00073CF583E493F533AE25AF267C007D64D4
:1003CA001201E37C007D0A1201E374A62DF5827402
:1003DA00073CF583E49354DFF53475356012075B07
:0103EA0022F0
:1006B900AE25AF26E4FCFDAB2EAA2DA92CA82BD381
:1006C900120246500C0522E522C394024008B2A347
:0606D90022E4F522D2A389
:0106DF0022F8
:10065F00EF14601014601614601C24037020C2B4D1
:10066F00D2B58004D2B4C2B5D2B6D2B722D2B4D2E8
:0F067F00B5C2B6D2B722D2B4D2B5D2B6C2B72264
:100777000523E523C395274003E4F523AF2312069A
:090787005F74322523F8E6F590B9
:010790002246
:0B07EA000000000000000000000022E2
:1003EB00D2B21207EAC2B2E4F58CF58AC28C30B3F2
:1003FB00FDD28C30B338AF8CEFFEAD8A7C00E42D90
:10040B00F531EC3EF530FEAF31E4FD7B407A9CF9E3
:10041B00F8C31202465012C28C752A02E4752E786C
:10042B00752D03F52CF52B8005752A0180C5E52A62
:10043B006401704EC28C85312E85302DF52CF52B39
:10044B00AF2EAE2DAD2CAC2BEC1201247B967A4348
:10045B00798B783C12001E1201628F2E8E2D8D2C03
:10046B008C2BE47FF47E01FDFCAB2EAA2DA92CA8CE
:10047B002BD3120246400BE4752E78752D03F52C09
:03048B00F52B222C
:0E07B700D2AF758911C2A9D28CD2ABD28E22DC
:10058C00C2A37F967E0012070375B0FF75A0FF759E
:10059C0090FF7580FF1203EB12051A1207B71200B9
:1005AC00031203EB1203EB300012C2001206B93037
:1005BC00A3031203EBE529700312051A1205D7E504
:0B05CC002FC3940A50E112032A80DCC8
:03001B0002068E4C
:0B068E00C0E0C0D075D000C000C00765
:10069900758DF8758B301207770524E524C3949678
:0706A9004005752400D2009A
:0906B000D007D000D0D0D0E03218
:10001E00EC4D6011E8497017ED33EC3304600DE4DC
:10002E00FCFFFEFD22E933E8330470F80201CE1224
:10003E00019958046009E4CC248150062850090225
:10004E0001D82840030201D5C0E0EB4A7044B980C4
:10005E0006D0E0FB0201C4EF4E701CBD8008EBFF22
:10006E00EAFEE9FD80EBE98DF0A4FEE5F002010762
:10007E00E9CDF9EAFEEBFFEF89F0A4FCE5F0CE89BD
:10008E00F0A42EFFE435F0CD89F0A42DFEE435F07A
:10009E008067EF4E7005BD80D780C3EF8BF0A4ACA8
:1000AE00F0EE8BF0A42CFCE435F0F8EF8AF0A42CE3
:1000BE00E5F038FCE433CB8DF0A42CFCE5F03BF8F6
:1000CE00EE8AF0A42CFCE5F038F8E433CF89F0A4E6
:1000DE002CFCE5F038CF3400CE89F0A42FFFE5F0EC
:1000EE003EFEE433C98DF0A42EFEE5F039CD8AF044
:1000FE00A42FFFE5F03EFEE43DFD33D0E0FB5007BC
:10010E000BBB000F0201D8EC2CFCEF33FFEE33FEDD
:06011E00ED33FD0201B00B
:1001240075F020800E75F010800575F0087D007E56
:10013400007F003392D530D503120238EC334010DF
:10014400EF33FFEE33FEED33FDEC33FCD5F0ED225F
:0E015400E5F0247EA2D513CC92E7CDCEFF229B
:10016200EDD2E7CD33EC3392D524814006E4FFFE95
:10017200FDFC22FCE4CFCECDCC24E0501174FF80F4
:10018200EDC3CC13CCCD13CDCE13CECF13CF047091
:07019200F030D5DE02023857
:10019900E9D2E7C933E833F892D5EDD2E7CD33ECAC
:0701A90033FC5002B2D52225
:1001B000EC30E7100FBF000C0EBE00080DBD0004B0
:1001C0000BEB6014A2D5EB13FCED92E7FD2274FF5C
:1001D000FCFDFEFF22E480F8A2D574FF13FC7D80B5
:0301E000E480EFC9
:0300000002048E69
:0C048E00787FE4F6D8FD7581390204D5B2
:1001E300BC000BBE0029EF8DF084FFADF022E4CC00
:1001F300F875F008EF2FFFEE33FEEC33FCEE9DECC9
:10020300984005FCEE9DFE0FD5F0E9E4CEFD22ED0E
:10021300F8F5F0EE8420D21CFEADF075F008EF2F58
:10022300FFED33FD4007985006D5F0F222C398FD49
:050233000FD5F0EA22E6
:10061B00C2D5E830E70FB2D5E4C39BFBE49AFAE40A
:10062B0099F9E498F8EC30E717B2D512065112029B
:10063B0098E4C39BFBE49AFAE499F9E498F88003F5
:10064B0012029830D50DE4C39FFFE49EFEE49DFD9E
:04065B00E49CFC22FD
:0E023800C3E49FFFE49EFEE49DFDE49CFC22D7
:10024600EB9FF5F0EA9E42F0E99D42F0EC6480C82F
:0602560064809845F022CF
:10049A0002058CE493A3F8E493A34003F68001F2E7
:1004AA0008DFF48029E493A3F85407240CC8C33363
:1004BA00C4540F4420C8834004F456800146F6DF32
:1004CA00E4800B01020408102040809007C5E47EF6
:1004DA00019360BCA3FF543F30E509541FFEE49327
:1004EA00A360010ECF54C025E060A840B8E493A3EE
:1004FA00FAE493A3F8E493A3C8C582C8CAC583CA19
:10050A00F0A3C8C582C8CAC583CADFE9DEE780BED0
:0107D2000026
:10025C0075F008758200EF2FFFEE33FECD33CDCC59
:10026C0033CCC58233C5829BED9AEC99E5829840DC
:10027C000CF582EE9BFEED9AFDEC99FC0FD5F0D6B9
:10028C00E4CEFBE4CDFAE4CCF9A88222B800C1B9E3
:10029C000059BA002DEC8BF084CFCECDFCE5F0CB21
:1002AC00F97818EF2FFFEE33FEED33FDEC33FCEB5A
:1002BC0033FB10D703994004EB99FB0FD8E5E4F915
:1002CC00FA227818EF2FFFEE33FEED33FDEC33FC02
:1002DC00C933C910D7059BE99A4007EC9BFCE99AF6
:1002EC00F90FD8E0E4C9FAE4CCFB2275F010EF2F3B
:1002FC00FFEE33FEED33FDCC33CCC833C810D7073B
:10030C009BEC9AE899400AED9BFDEC9AFCE899F875
:0E031C000FD5F0DAE4CDFBE4CCFAE4C8F92208
:00000001FF
